{
  "_format": "hh-sol-artifact-1",
  "contractName": "DappFundX",
  "sourceName": "contracts/dappFundsX.sol",
  "abi": [
    {
      "inputs": [
        {
          "internalType": "uint256",
          "name": "_charityTax",
          "type": "uint256"
        }
      ],
      "stateMutability": "nonpayable",
      "type": "constructor"
    },
    {
      "anonymous": false,
      "inputs": [
        {
          "indexed": true,
          "internalType": "address",
          "name": "previousOwner",
          "type": "address"
        },
        {
          "indexed": true,
          "internalType": "address",
          "name": "newOwner",
          "type": "address"
        }
      ],
      "name": "OwnershipTransferred",
      "type": "event"
    },
    {
      "inputs": [
        {
          "internalType": "uint256",
          "name": "_taxPct",
          "type": "uint256"
        }
      ],
      "name": "changeTax",
      "outputs": [],
      "stateMutability": "nonpayable",
      "type": "function"
    },
    {
      "inputs": [
        {
          "internalType": "uint256",
          "name": "",
          "type": "uint256"
        }
      ],
      "name": "charityExists",
      "outputs": [
        {
          "internalType": "bool",
          "name": "",
          "type": "bool"
        }
      ],
      "stateMutability": "view",
      "type": "function"
    },
    {
      "inputs": [],
      "name": "charityTax",
      "outputs": [
        {
          "internalType": "uint256",
          "name": "",
          "type": "uint256"
        }
      ],
      "stateMutability": "view",
      "type": "function"
    },
    {
      "inputs": [
        {
          "internalType": "string",
          "name": "name",
          "type": "string"
        },
        {
          "internalType": "string",
          "name": "fullname",
          "type": "string"
        },
        {
          "internalType": "string",
          "name": "profile",
          "type": "string"
        },
        {
          "internalType": "string",
          "name": "description",
          "type": "string"
        },
        {
          "internalType": "string",
          "name": "image",
          "type": "string"
        },
        {
          "internalType": "uint256",
          "name": "amount",
          "type": "uint256"
        }
      ],
      "name": "createCharity",
      "outputs": [],
      "stateMutability": "nonpayable",
      "type": "function"
    },
    {
      "inputs": [
        {
          "internalType": "uint256",
          "name": "id",
          "type": "uint256"
        }
      ],
      "name": "deleteCharity",
      "outputs": [],
      "stateMutability": "nonpayable",
      "type": "function"
    },
    {
      "inputs": [
        {
          "internalType": "uint256",
          "name": "id",
          "type": "uint256"
        },
        {
          "internalType": "string",
          "name": "fullname",
          "type": "string"
        },
        {
          "internalType": "string",
          "name": "comment",
          "type": "string"
        }
      ],
      "name": "donate",
      "outputs": [],
      "stateMutability": "payable",
      "type": "function"
    },
    {
      "inputs": [],
      "name": "getCharities",
      "outputs": [
        {
          "components": [
            {
              "internalType": "uint256",
              "name": "id",
              "type": "uint256"
            },
            {
              "internalType": "address",
              "name": "owner",
              "type": "address"
            },
            {
              "internalType": "string",
              "name": "name",
              "type": "string"
            },
            {
              "internalType": "string",
              "name": "fullname",
              "type": "string"
            },
            {
              "internalType": "string",
              "name": "description",
              "type": "string"
            },
            {
              "internalType": "string",
              "name": "image",
              "type": "string"
            },
            {
              "internalType": "string",
              "name": "profile",
              "type": "string"
            },
            {
              "internalType": "uint256",
              "name": "amount",
              "type": "uint256"
            },
            {
              "internalType": "uint256",
              "name": "donations",
              "type": "uint256"
            },
            {
              "internalType": "uint256",
              "name": "raised",
              "type": "uint256"
            },
            {
              "internalType": "uint256",
              "name": "timestamp",
              "type": "uint256"
            },
            {
              "internalType": "bool",
              "name": "deleted",
              "type": "bool"
            },
            {
              "internalType": "bool",
              "name": "banned",
              "type": "bool"
            }
          ],
          "internalType": "struct DappFundX.CharityStruct[]",
          "name": "Charities",
          "type": "tuple[]"
        }
      ],
      "stateMutability": "view",
      "type": "function"
    },
    {
      "inputs": [
        {
          "internalType": "uint256",
          "name": "id",
          "type": "uint256"
        }
      ],
      "name": "getCharity",
      "outputs": [
        {
          "components": [
            {
              "internalType": "uint256",
              "name": "id",
              "type": "uint256"
            },
            {
              "internalType": "address",
              "name": "owner",
              "type": "address"
            },
            {
              "internalType": "string",
              "name": "name",
              "type": "string"
            },
            {
              "internalType": "string",
              "name": "fullname",
              "type": "string"
            },
            {
              "internalType": "string",
              "name": "description",
              "type": "string"
            },
            {
              "internalType": "string",
              "name": "image",
              "type": "string"
            },
            {
              "internalType": "string",
              "name": "profile",
              "type": "string"
            },
            {
              "internalType": "uint256",
              "name": "amount",
              "type": "uint256"
            },
            {
              "internalType": "uint256",
              "name": "donations",
              "type": "uint256"
            },
            {
              "internalType": "uint256",
              "name": "raised",
              "type": "uint256"
            },
            {
              "internalType": "uint256",
              "name": "timestamp",
              "type": "uint256"
            },
            {
              "internalType": "bool",
              "name": "deleted",
              "type": "bool"
            },
            {
              "internalType": "bool",
              "name": "banned",
              "type": "bool"
            }
          ],
          "internalType": "struct DappFundX.CharityStruct",
          "name": "",
          "type": "tuple"
        }
      ],
      "stateMutability": "view",
      "type": "function"
    },
    {
      "inputs": [],
      "name": "getMyCharities",
      "outputs": [
        {
          "components": [
            {
              "internalType": "uint256",
              "name": "id",
              "type": "uint256"
            },
            {
              "internalType": "address",
              "name": "owner",
              "type": "address"
            },
            {
              "internalType": "string",
              "name": "name",
              "type": "string"
            },
            {
              "internalType": "string",
              "name": "fullname",
              "type": "string"
            },
            {
              "internalType": "string",
              "name": "description",
              "type": "string"
            },
            {
              "internalType": "string",
              "name": "image",
              "type": "string"
            },
            {
              "internalType": "string",
              "name": "profile",
              "type": "string"
            },
            {
              "internalType": "uint256",
              "name": "amount",
              "type": "uint256"
            },
            {
              "internalType": "uint256",
              "name": "donations",
              "type": "uint256"
            },
            {
              "internalType": "uint256",
              "name": "raised",
              "type": "uint256"
            },
            {
              "internalType": "uint256",
              "name": "timestamp",
              "type": "uint256"
            },
            {
              "internalType": "bool",
              "name": "deleted",
              "type": "bool"
            },
            {
              "internalType": "bool",
              "name": "banned",
              "type": "bool"
            }
          ],
          "internalType": "struct DappFundX.CharityStruct[]",
          "name": "Charities",
          "type": "tuple[]"
        }
      ],
      "stateMutability": "view",
      "type": "function"
    },
    {
      "inputs": [
        {
          "internalType": "uint256",
          "name": "id",
          "type": "uint256"
        }
      ],
      "name": "getSupporters",
      "outputs": [
        {
          "components": [
            {
              "internalType": "uint256",
              "name": "id",
              "type": "uint256"
            },
            {
              "internalType": "uint256",
              "name": "cid",
              "type": "uint256"
            },
            {
              "internalType": "string",
              "name": "fullname",
              "type": "string"
            },
            {
              "internalType": "uint256",
              "name": "amount",
              "type": "uint256"
            },
            {
              "internalType": "uint256",
              "name": "timestamp",
              "type": "uint256"
            },
            {
              "internalType": "string",
              "name": "comment",
              "type": "string"
            },
            {
              "internalType": "address",
              "name": "supporter",
              "type": "address"
            }
          ],
          "internalType": "struct DappFundX.SupportsStruct[]",
          "name": "",
          "type": "tuple[]"
        }
      ],
      "stateMutability": "view",
      "type": "function"
    },
    {
      "inputs": [],
      "name": "owner",
      "outputs": [
        {
          "internalType": "address",
          "name": "",
          "type": "address"
        }
      ],
      "stateMutability": "view",
      "type": "function"
    },
    {
      "inputs": [],
      "name": "renounceOwnership",
      "outputs": [],
      "stateMutability": "nonpayable",
      "type": "function"
    },
    {
      "inputs": [
        {
          "internalType": "uint256",
          "name": "id",
          "type": "uint256"
        }
      ],
      "name": "toggleBan",
      "outputs": [],
      "stateMutability": "nonpayable",
      "type": "function"
    },
    {
      "inputs": [
        {
          "internalType": "address",
          "name": "newOwner",
          "type": "address"
        }
      ],
      "name": "transferOwnership",
      "outputs": [],
      "stateMutability": "nonpayable",
      "type": "function"
    },
    {
      "inputs": [
        {
          "internalType": "uint256",
          "name": "id",
          "type": "uint256"
        },
        {
          "internalType": "string",
          "name": "name",
          "type": "string"
        },
        {
          "internalType": "string",
          "name": "fullname",
          "type": "string"
        },
        {
          "internalType": "string",
          "name": "profile",
          "type": "string"
        },
        {
          "internalType": "string",
          "name": "description",
          "type": "string"
        },
        {
          "internalType": "string",
          "name": "image",
          "type": "string"
        },
        {
          "internalType": "uint256",
          "name": "amount",
          "type": "uint256"
        }
      ],
      "name": "updateCharity",
      "outputs": [],
      "stateMutability": "nonpayable",
      "type": "function"
    }
  ],
  "bytecode": "0x60806040523480156200001157600080fd5b506040516200273738038062002737833981016040819052620000349162000098565b6200003f3362000048565b600355620000b2565b600080546001600160a01b038381166001600160a01b0319831681178455604051919092169283917f8be0079c531659141344cd1fd0a4f28419497f9722a3daafe3b4186f6b6457e09190a35050565b600060208284031215620000ab57600080fd5b5051919050565b61267580620000c26000396000f3fe6080604052600436106100e85760003560e01c8063715018a61161008a578063ed57247111610059578063ed57247114610279578063f2ccf83914610299578063f2fde38b146102ac578063fd67db81146102cc57600080fd5b8063715018a6146101fc5780638da5cb5b14610211578063ac3238c114610239578063cdb532b91461025957600080fd5b80633e45c8af116100c65780633e45c8af1461017857806348112c6f146101985780634f63829c146101ba57806358661929146101e757600080fd5b8063013c2191146100ed578063063165a3146101325780633d78478314610154575b600080fd5b3480156100f957600080fd5b5061011d610108366004611e9d565b60066020526000908152604090205460ff1681565b60405190151581526020015b60405180910390f35b34801561013e57600080fd5b5061015261014d366004611f59565b6102f9565b005b34801561016057600080fd5b5061016a60035481565b604051908152602001610129565b34801561018457600080fd5b50610152610193366004611e9d565b61064a565b3480156101a457600080fd5b506101ad6106b4565b604051610129919061216d565b3480156101c657600080fd5b506101da6101d5366004611e9d565b610b62565b60405161012991906121cf565b3480156101f357600080fd5b506101ad610d36565b34801561020857600080fd5b50610152611228565b34801561021d57600080fd5b506000546040516001600160a01b039091168152602001610129565b34801561024557600080fd5b50610152610254366004611e9d565b61123c565b34801561026557600080fd5b50610152610274366004611e9d565b61129e565b34801561028557600080fd5b50610152610294366004612295565b611349565b6101526102a736600461237a565b6115df565b3480156102b857600080fd5b506101526102c73660046123e7565b611916565b3480156102d857600080fd5b506102ec6102e7366004611e9d565b61198f565b6040516101299190612417565b60008651116103465760405162461bcd60e51b81526020600482015260146024820152734e616d652063616e6e6f7420626520656d70747960601b60448201526064015b60405180910390fd5b60008551116103975760405162461bcd60e51b815260206004820152601860248201527f46756c6c6e616d652063616e6e6f7420626520656d7074790000000000000000604482015260640161033d565b60008351116103e85760405162461bcd60e51b815260206004820152601b60248201527f4465736372697074696f6e2063616e6e6f7420626520656d7074790000000000604482015260640161033d565b60008451116104395760405162461bcd60e51b815260206004820152601760248201527f50726f66696c652063616e6e6f7420626520656d707479000000000000000000604482015260640161033d565b60008251116104825760405162461bcd60e51b8152602060048201526015602482015274496d6167652063616e6e6f7420626520656d70747960581b604482015260640161033d565b600081116104ca5760405162461bcd60e51b8152602060048201526015602482015274416d6f756e742063616e6e6f74206265207a65726f60581b604482015260640161033d565b6104d8600180546001019055565b6104e0611e28565b600154815233602082015260408101879052606081018690526080810184905260a0810183905260c0810185905260e0810182905261051d611cfa565b610140820152805160009081526004602090815260409182902083518155908301516001820180546001600160a01b0319166001600160a01b0390921691909117905590820151829190600282019061057690826124aa565b506060820151600382019061058b90826124aa565b50608082015160048201906105a090826124aa565b5060a082015160058201906105b590826124aa565b5060c082015160068201906105ca90826124aa565b5060e082015160078201556101008083015160088301556101208301516009830155610140830151600a830155610160830151600b90920180546101809094015161ffff1990941692151561ff0019169290921792151502919091179055516000908152600660205260409020805460ff19166001179055505050505050565b610652611d19565b600081118015610663575060648111155b6106af5760405162461bcd60e51b815260206004820152601f60248201527f50657263656e74206d757374206265206265747765656e2031202d2031303000604482015260640161033d565b600355565b6060600060015b6001548111610722576000818152600460205260409020600b015460ff161580156106fd57506000818152600460205260409020600b0154610100900460ff16155b15610710578161070c81612580565b9250505b8061071a81612580565b9150506106bb565b508067ffffffffffffffff81111561073c5761073c611eb6565b60405190808252806020026020018201604052801561077557816020015b610762611e28565b81526020019060019003908161075a5790505b509150600060015b6001548111610b5c576000818152600460205260409020600b015460ff161580156107bf57506000818152600460205260409020600b0154610100900460ff16155b15610b4a5760008181526004602090815260409182902082516101a0810184528154815260018201546001600160a01b031692810192909252600281018054929391929184019161080f9061242a565b80601f016020809104026020016040519081016040528092919081815260200182805461083b9061242a565b80156108885780601f1061085d57610100808354040283529160200191610888565b820191906000526020600020905b81548152906001019060200180831161086b57829003601f168201915b505050505081526020016003820180546108a19061242a565b80601f01602080910402602001604051908101604052809291908181526020018280546108cd9061242a565b801561091a5780601f106108ef5761010080835404028352916020019161091a565b820191906000526020600020905b8154815290600101906020018083116108fd57829003601f168201915b505050505081526020016004820180546109339061242a565b80601f016020809104026020016040519081016040528092919081815260200182805461095f9061242a565b80156109ac5780601f10610981576101008083540402835291602001916109ac565b820191906000526020600020905b81548152906001019060200180831161098f57829003601f168201915b505050505081526020016005820180546109c59061242a565b80601f01602080910402602001604051908101604052809291908181526020018280546109f19061242a565b8015610a3e5780601f10610a1357610100808354040283529160200191610a3e565b820191906000526020600020905b815481529060010190602001808311610a2157829003601f168201915b50505050508152602001600682018054610a579061242a565b80601f0160208091040260200160405190810160405280929190818152602001828054610a839061242a565b8015610ad05780601f10610aa557610100808354040283529160200191610ad0565b820191906000526020600020905b815481529060010190602001808311610ab357829003601f168201915b5050509183525050600782015460208201526008820154604082015260098201546060820152600a8201546080820152600b9091015460ff808216151560a084015261010090910416151560c0909101528483610b2c81612580565b945081518110610b3e57610b3e612599565b60200260200101819052505b80610b5481612580565b91505061077d565b50505090565b606060056000838152602001908152602001600020805480602002602001604051908101604052809291908181526020016000905b82821015610d2b57838290600052602060002090600702016040518060e00160405290816000820154815260200160018201548152602001600282018054610bde9061242a565b80601f0160208091040260200160405190810160405280929190818152602001828054610c0a9061242a565b8015610c575780601f10610c2c57610100808354040283529160200191610c57565b820191906000526020600020905b815481529060010190602001808311610c3a57829003601f168201915b505050505081526020016003820154815260200160048201548152602001600582018054610c849061242a565b80601f0160208091040260200160405190810160405280929190818152602001828054610cb09061242a565b8015610cfd5780601f10610cd257610100808354040283529160200191610cfd565b820191906000526020600020905b815481529060010190602001808311610ce057829003601f168201915b5050509183525050600691909101546001600160a01b03166020918201529082526001929092019101610b97565b505050509050919050565b6060600060015b6001548111610dc9576000818152600460205260409020600b015460ff16158015610d7f57506000818152600460205260409020600b0154610100900460ff16155b8015610da457506000818152600460205260409020600101546001600160a01b031633145b15610db75781610db381612580565b9250505b80610dc181612580565b915050610d3d565b508067ffffffffffffffff811115610de357610de3611eb6565b604051908082528060200260200182016040528015610e1c57816020015b610e09611e28565b815260200190600190039081610e015790505b509150600060015b6001548111610b5c576000818152600460205260409020600b015460ff16158015610e6657506000818152600460205260409020600b0154610100900460ff16155b8015610e8b57506000818152600460205260409020600101546001600160a01b031633145b156112165760008181526004602090815260409182902082516101a0810184528154815260018201546001600160a01b0316928101929092526002810180549293919291840191610edb9061242a565b80601f0160208091040260200160405190810160405280929190818152602001828054610f079061242a565b8015610f545780601f10610f2957610100808354040283529160200191610f54565b820191906000526020600020905b815481529060010190602001808311610f3757829003601f168201915b50505050508152602001600382018054610f6d9061242a565b80601f0160208091040260200160405190810160405280929190818152602001828054610f999061242a565b8015610fe65780601f10610fbb57610100808354040283529160200191610fe6565b820191906000526020600020905b815481529060010190602001808311610fc957829003601f168201915b50505050508152602001600482018054610fff9061242a565b80601f016020809104026020016040519081016040528092919081815260200182805461102b9061242a565b80156110785780601f1061104d57610100808354040283529160200191611078565b820191906000526020600020905b81548152906001019060200180831161105b57829003601f168201915b505050505081526020016005820180546110919061242a565b80601f01602080910402602001604051908101604052809291908181526020018280546110bd9061242a565b801561110a5780601f106110df5761010080835404028352916020019161110a565b820191906000526020600020905b8154815290600101906020018083116110ed57829003601f168201915b505050505081526020016006820180546111239061242a565b80601f016020809104026020016040519081016040528092919081815260200182805461114f9061242a565b801561119c5780601f106111715761010080835404028352916020019161119c565b820191906000526020600020905b81548152906001019060200180831161117f57829003601f168201915b5050509183525050600782015460208201526008820154604082015260098201546060820152600a8201546080820152600b9091015460ff808216151560a084015261010090910416151560c09091015284836111f881612580565b94508151811061120a5761120a612599565b60200260200101819052505b8061122081612580565b915050610e24565b611230611d19565b61123a6000611d73565b565b611244611d19565b60008181526006602052604090205460ff166112725760405162461bcd60e51b815260040161033d906125af565b6000908152600460205260409020600b01805461ff001981166101009182900460ff1615909102179055565b60008181526006602052604090205460ff166112cc5760405162461bcd60e51b815260040161033d906125af565b6000818152600460205260409020600101546001600160a01b0316331461132b5760405162461bcd60e51b8152602060048201526013602482015272556e617574686f72697a656420456e7469747960681b604482015260640161033d565b6000908152600460205260409020600b01805460ff19166001179055565b60008781526006602052604090205460ff166113775760405162461bcd60e51b815260040161033d906125af565b6000878152600460205260409020600101546001600160a01b031633146113d65760405162461bcd60e51b8152602060048201526013602482015272556e617574686f72697a656420456e7469747960681b604482015260640161033d565b600086511161141e5760405162461bcd60e51b81526020600482015260146024820152734e616d652063616e6e6f7420626520656d70747960601b604482015260640161033d565b600085511161146f5760405162461bcd60e51b815260206004820152601960248201527f46756c6c206e616d652063616e6e6f7420626520656d70747900000000000000604482015260640161033d565b60008351116114c05760405162461bcd60e51b815260206004820152601b60248201527f4465736372697074696f6e2063616e6e6f7420626520656d7074790000000000604482015260640161033d565b60008451116115095760405162461bcd60e51b8152602060048201526015602482015274496d6167652063616e6e6f7420626520656d70747960581b604482015260640161033d565b600081116115515760405162461bcd60e51b8152602060048201526015602482015274416d6f756e742063616e6e6f74206265207a65726f60581b604482015260640161033d565b600087815260046020526040902060020161156c87826124aa565b50600087815260046020526040902060030161158886826124aa565b506000878152600460208190526040909120016115a584826124aa565b5060008781526004602052604090206005016115c183826124aa565b50600096875260046020526040909620600701959095555050505050565b60008381526006602052604090205460ff1661160d5760405162461bcd60e51b815260040161033d906125af565b6000838152600460205260409020600b0154610100900460ff16156116745760405162461bcd60e51b815260206004820152601d60248201527f436861726974792042616e6e65642c20636f6e746163742061646d696e000000604482015260640161033d565b600034116116c45760405162461bcd60e51b815260206004820152601760248201527f446f6e6174696f6e2063616e6e6f74206265207a65726f000000000000000000604482015260640161033d565b600083815260046020526040902060078101546009909101541061172a5760405162461bcd60e51b815260206004820152601860248201527f43686172697479206275646765742066756c66696c6c65640000000000000000604482015260640161033d565b611738600280546001019055565b6117816040518060e0016040528060008152602001600081526020016060815260200160008152602001600081526020016060815260200160006001600160a01b031681525090565b600254815260208101849052604081018390523360c082015234606082015260a081018290526117af611cfa565b608082015260008481526005602090815260408083208054600181810183559185529383902085516007909502019384559184015191830191909155820151829190600282019061180090826124aa565b50606082015160038201556080820151600482015560a0820151600582019061182990826124aa565b5060c09190910151600690910180546001600160a01b0319166001600160a01b03909216919091179055600084815260046020526040812060090180543492906118749084906125da565b9091555050600084815260046020526040812060080180546001929061189b9084906125da565b90915550506003546000906064906118b390346125f3565b6118bd919061260a565b905060006118cb823461262c565b6000878152600460205260409020600101549091506118f3906001600160a01b031682611dc3565b61190e6119086000546001600160a01b031690565b83611dc3565b505050505050565b61191e611d19565b6001600160a01b0381166119835760405162461bcd60e51b815260206004820152602660248201527f4f776e61626c653a206e6577206f776e657220697320746865207a65726f206160448201526564647265737360d01b606482015260840161033d565b61198c81611d73565b50565b611997611e28565b60008281526004602090815260409182902082516101a0810184528154815260018201546001600160a01b03169281019290925260028101805492939192918401916119e29061242a565b80601f0160208091040260200160405190810160405280929190818152602001828054611a0e9061242a565b8015611a5b5780601f10611a3057610100808354040283529160200191611a5b565b820191906000526020600020905b815481529060010190602001808311611a3e57829003601f168201915b50505050508152602001600382018054611a749061242a565b80601f0160208091040260200160405190810160405280929190818152602001828054611aa09061242a565b8015611aed5780601f10611ac257610100808354040283529160200191611aed565b820191906000526020600020905b815481529060010190602001808311611ad057829003601f168201915b50505050508152602001600482018054611b069061242a565b80601f0160208091040260200160405190810160405280929190818152602001828054611b329061242a565b8015611b7f5780601f10611b5457610100808354040283529160200191611b7f565b820191906000526020600020905b815481529060010190602001808311611b6257829003601f168201915b50505050508152602001600582018054611b989061242a565b80601f0160208091040260200160405190810160405280929190818152602001828054611bc49061242a565b8015611c115780601f10611be657610100808354040283529160200191611c11565b820191906000526020600020905b815481529060010190602001808311611bf457829003601f168201915b50505050508152602001600682018054611c2a9061242a565b80601f0160208091040260200160405190810160405280929190818152602001828054611c569061242a565b8015611ca35780601f10611c7857610100808354040283529160200191611ca3565b820191906000526020600020905b815481529060010190602001808311611c8657829003601f168201915b5050509183525050600782015460208201526008820154604082015260098201546060820152600a8201546080820152600b9091015460ff808216151560a084015261010090910416151560c09091015292915050565b6000611d08426103e86125f3565b611d14906103e86125da565b905090565b6000546001600160a01b0316331461123a5760405162461bcd60e51b815260206004820181905260248201527f4f776e61626c653a2063616c6c6572206973206e6f7420746865206f776e6572604482015260640161033d565b600080546001600160a01b038381166001600160a01b0319831681178455604051919092169283917f8be0079c531659141344cd1fd0a4f28419497f9722a3daafe3b4186f6b6457e09190a35050565b6000826001600160a01b03168260405160006040518083038185875af1925050503d8060008114611e10576040519150601f19603f3d011682016040523d82523d6000602084013e611e15565b606091505b5050905080611e2357600080fd5b505050565b604051806101a001604052806000815260200160006001600160a01b031681526020016060815260200160608152602001606081526020016060815260200160608152602001600081526020016000815260200160008152602001600081526020016000151581526020016000151581525090565b600060208284031215611eaf57600080fd5b5035919050565b634e487b7160e01b600052604160045260246000fd5b600082601f830112611edd57600080fd5b813567ffffffffffffffff80821115611ef857611ef8611eb6565b604051601f8301601f19908116603f01168101908282118183101715611f2057611f20611eb6565b81604052838152866020858801011115611f3957600080fd5b836020870160208301376000602085830101528094505050505092915050565b60008060008060008060c08789031215611f7257600080fd5b863567ffffffffffffffff80821115611f8a57600080fd5b611f968a838b01611ecc565b97506020890135915080821115611fac57600080fd5b611fb88a838b01611ecc565b96506040890135915080821115611fce57600080fd5b611fda8a838b01611ecc565b95506060890135915080821115611ff057600080fd5b611ffc8a838b01611ecc565b9450608089013591508082111561201257600080fd5b5061201f89828a01611ecc565b92505060a087013590509295509295509295565b6000815180845260005b818110156120595760208185018101518683018201520161203d565b506000602082860101526020601f19601f83011685010191505092915050565b60006101a082518452602083015161209c60208601826001600160a01b03169052565b5060408301518160408601526120b482860182612033565b915050606083015184820360608601526120ce8282612033565b915050608083015184820360808601526120e88282612033565b91505060a083015184820360a08601526121028282612033565b91505060c083015184820360c086015261211c8282612033565b60e08581015190870152610100808601519087015261012080860151908701526101408086015190870152610160808601511515908701526101809485015115159490950193909352509192915050565b6000602080830181845280855180835260408601915060408160051b870101925083870160005b828110156121c257603f198886030184526121b0858351612079565b94509285019290850190600101612194565b5092979650505050505050565b60006020808301818452808551808352604092508286019150828160051b87010184880160005b8381101561228757603f19898403018552815160e081518552888201518986015287820151818987015261222c82870182612033565b9150506060808301518187015250608080830151818701525060a0808301518683038288015261225c8382612033565b60c0948501516001600160a01b031697909401969096525050948701949250908601906001016121f6565b509098975050505050505050565b600080600080600080600060e0888a0312156122b057600080fd5b87359650602088013567ffffffffffffffff808211156122cf57600080fd5b6122db8b838c01611ecc565b975060408a01359150808211156122f157600080fd5b6122fd8b838c01611ecc565b965060608a013591508082111561231357600080fd5b61231f8b838c01611ecc565b955060808a013591508082111561233557600080fd5b6123418b838c01611ecc565b945060a08a013591508082111561235757600080fd5b506123648a828b01611ecc565b92505060c0880135905092959891949750929550565b60008060006060848603121561238f57600080fd5b83359250602084013567ffffffffffffffff808211156123ae57600080fd5b6123ba87838801611ecc565b935060408601359150808211156123d057600080fd5b506123dd86828701611ecc565b9150509250925092565b6000602082840312156123f957600080fd5b81356001600160a01b038116811461241057600080fd5b9392505050565b6020815260006124106020830184612079565b600181811c9082168061243e57607f821691505b60208210810361245e57634e487b7160e01b600052602260045260246000fd5b50919050565b601f821115611e2357600081815260208120601f850160051c8101602086101561248b5750805b601f850160051c820191505b8181101561190e57828155600101612497565b815167ffffffffffffffff8111156124c4576124c4611eb6565b6124d8816124d2845461242a565b84612464565b602080601f83116001811461250d57600084156124f55750858301515b600019600386901b1c1916600185901b17855561190e565b600085815260208120601f198616915b8281101561253c5788860151825594840194600190910190840161251d565b508582101561255a5787850151600019600388901b60f8161c191681555b5050505050600190811b01905550565b634e487b7160e01b600052601160045260246000fd5b6000600182016125925761259261256a565b5060010190565b634e487b7160e01b600052603260045260246000fd5b60208082526011908201527010da185c9a5d1e48139bdd08119bdd5b99607a1b604082015260600190565b808201808211156125ed576125ed61256a565b92915050565b80820281158282048414176125ed576125ed61256a565b60008261262757634e487b7160e01b600052601260045260246000fd5b500490565b818103818111156125ed576125ed61256a56fea2646970667358221220ae4d01a0e311b33bf28da93d2182e498bece9120f08fe150ad4e5d391feab68664736f6c63430008110033",
  "linkReferences": {},
  "deployedLinkReferences": {}
}