{
  "_format": "hh-sol-artifact-1",
  "contractName": "DappFundX",
  "sourceName": "contracts/dappFundsX.sol",
  "abi": [
    {
      "inputs": [
        {
          "internalType": "uint256",
          "name": "_charityTax",
          "type": "uint256"
        }
      ],
      "stateMutability": "nonpayable",
      "type": "constructor"
    },
    {
      "inputs": [
        {
          "internalType": "uint256",
          "name": "_taxPct",
          "type": "uint256"
        }
      ],
      "name": "changeTax",
      "outputs": [],
      "stateMutability": "nonpayable",
      "type": "function"
    },
    {
      "inputs": [],
      "name": "charityTax",
      "outputs": [
        {
          "internalType": "uint256",
          "name": "",
          "type": "uint256"
        }
      ],
      "stateMutability": "view",
      "type": "function"
    },
    {
      "inputs": [
        {
          "internalType": "string",
          "name": "_cid",
          "type": "string"
        },
        {
          "internalType": "uint256",
          "name": "amount",
          "type": "uint256"
        }
      ],
      "name": "createCharity",
      "outputs": [],
      "stateMutability": "nonpayable",
      "type": "function"
    },
    {
      "inputs": [
        {
          "internalType": "string",
          "name": "_cid",
          "type": "string"
        }
      ],
      "name": "createUser",
      "outputs": [],
      "stateMutability": "nonpayable",
      "type": "function"
    },
    {
      "inputs": [
        {
          "internalType": "uint256",
          "name": "id",
          "type": "uint256"
        }
      ],
      "name": "donate",
      "outputs": [],
      "stateMutability": "payable",
      "type": "function"
    },
    {
      "inputs": [],
      "name": "getCharities",
      "outputs": [
        {
          "components": [
            {
              "internalType": "string",
              "name": "cid",
              "type": "string"
            },
            {
              "internalType": "uint256",
              "name": "id",
              "type": "uint256"
            },
            {
              "internalType": "address",
              "name": "owner",
              "type": "address"
            },
            {
              "internalType": "uint256",
              "name": "amount",
              "type": "uint256"
            },
            {
              "internalType": "uint256",
              "name": "donations",
              "type": "uint256"
            }
          ],
          "internalType": "struct DappFundX.CharityStruct[]",
          "name": "Charities",
          "type": "tuple[]"
        }
      ],
      "stateMutability": "view",
      "type": "function"
    },
    {
      "inputs": [
        {
          "internalType": "uint256",
          "name": "id",
          "type": "uint256"
        }
      ],
      "name": "getCharity",
      "outputs": [
        {
          "components": [
            {
              "internalType": "string",
              "name": "cid",
              "type": "string"
            },
            {
              "internalType": "uint256",
              "name": "id",
              "type": "uint256"
            },
            {
              "internalType": "address",
              "name": "owner",
              "type": "address"
            },
            {
              "internalType": "uint256",
              "name": "amount",
              "type": "uint256"
            },
            {
              "internalType": "uint256",
              "name": "donations",
              "type": "uint256"
            }
          ],
          "internalType": "struct DappFundX.CharityStruct",
          "name": "",
          "type": "tuple"
        }
      ],
      "stateMutability": "view",
      "type": "function"
    },
    {
      "inputs": [],
      "name": "getMyCharities",
      "outputs": [
        {
          "components": [
            {
              "internalType": "string",
              "name": "cid",
              "type": "string"
            },
            {
              "internalType": "uint256",
              "name": "id",
              "type": "uint256"
            },
            {
              "internalType": "address",
              "name": "owner",
              "type": "address"
            },
            {
              "internalType": "uint256",
              "name": "amount",
              "type": "uint256"
            },
            {
              "internalType": "uint256",
              "name": "donations",
              "type": "uint256"
            }
          ],
          "internalType": "struct DappFundX.CharityStruct[]",
          "name": "Charities",
          "type": "tuple[]"
        }
      ],
      "stateMutability": "view",
      "type": "function"
    },
    {
      "inputs": [
        {
          "internalType": "uint256",
          "name": "id",
          "type": "uint256"
        }
      ],
      "name": "getSupporters",
      "outputs": [
        {
          "components": [
            {
              "internalType": "uint256",
              "name": "id",
              "type": "uint256"
            },
            {
              "internalType": "uint256",
              "name": "amount",
              "type": "uint256"
            },
            {
              "internalType": "address",
              "name": "supporter",
              "type": "address"
            }
          ],
          "internalType": "struct DappFundX.SupportsStruct[]",
          "name": "",
          "type": "tuple[]"
        }
      ],
      "stateMutability": "view",
      "type": "function"
    },
    {
      "inputs": [],
      "name": "getUser",
      "outputs": [
        {
          "components": [
            {
              "internalType": "string",
              "name": "cid",
              "type": "string"
            },
            {
              "internalType": "bool",
              "name": "verified",
              "type": "bool"
            }
          ],
          "internalType": "struct DappFundX.UserStruct",
          "name": "",
          "type": "tuple"
        }
      ],
      "stateMutability": "view",
      "type": "function"
    },
    {
      "inputs": [],
      "name": "owner",
      "outputs": [
        {
          "internalType": "address",
          "name": "",
          "type": "address"
        }
      ],
      "stateMutability": "view",
      "type": "function"
    },
    {
      "inputs": [
        {
          "internalType": "uint256",
          "name": "id",
          "type": "uint256"
        },
        {
          "internalType": "string",
          "name": "_cid",
          "type": "string"
        },
        {
          "internalType": "uint256",
          "name": "amount",
          "type": "uint256"
        }
      ],
      "name": "updateCharity",
      "outputs": [],
      "stateMutability": "nonpayable",
      "type": "function"
    }
  ],
  "bytecode": "0x608060405234801561001057600080fd5b5060405161139438038061139483398101604081905261002f91610037565b600355610050565b60006020828403121561004957600080fd5b5051919050565b6113358061005f6000396000f3fe6080604052600436106100a75760003560e01c806358661929116100645780635866192914610186578063832880e71461019b5780638da5cb5b146101bd578063f14faf6f146101f5578063f5641c1214610208578063fd67db811461022857600080fd5b806315ac6e2d146100ac5780633d784783146100ce5780633e45c8af146100f757806348112c6f146101175780634f63829c14610139578063507ffba514610166575b600080fd5b3480156100b857600080fd5b506100cc6100c7366004610e79565b610255565b005b3480156100da57600080fd5b506100e460035481565b6040519081526020015b60405180910390f35b34801561010357600080fd5b506100cc610112366004610ebe565b610344565b34801561012357600080fd5b5061012c6103a6565b6040516100ee9190610f6e565b34801561014557600080fd5b50610159610154366004610ebe565b610529565b6040516100ee9190610fd0565b34801561017257600080fd5b506100cc610181366004611032565b6105be565b34801561019257600080fd5b5061012c610611565b3480156101a757600080fd5b506101b0610808565b6040516100ee919061106f565b3480156101c957600080fd5b506002546101dd906001600160a01b031681565b6040516001600160a01b0390911681526020016100ee565b6100cc610203366004610ebe565b6108dd565b34801561021457600080fd5b506100cc6102233660046110a3565b610b2e565b34801561023457600080fd5b50610248610243366004610ebe565b610c4f565b6040516100ee91906110f3565b600081116102a25760405162461bcd60e51b8152602060048201526015602482015274416d6f756e742063616e6e6f74206265207a65726f60581b60448201526064015b60405180910390fd5b6000805490806102b183611123565b91905055506102be610d9e565b6000805460208084018290523360408086019190915286855260608501869052918352600490529020815182919081906102f890826111c4565b506020820151600182015560408201516002820180546001600160a01b0319166001600160a01b0390921691909117905560608201516003820155608090910151600490910155505050565b600081118015610355575060648111155b6103a15760405162461bcd60e51b815260206004820152601f60248201527f50657263656e74206d757374206265206265747765656e2031202d20313030006044820152606401610299565b600355565b606060005467ffffffffffffffff8111156103c3576103c3610dd6565b6040519080825280602002602001820160405280156103fc57816020015b6103e9610d9e565b8152602001906001900390816103e15790505b509050600060015b60005481116105245760008181526004602052604090819020815160a081019092528054829082906104359061113c565b80601f01602080910402602001604051908101604052809291908181526020018280546104619061113c565b80156104ae5780601f10610483576101008083540402835291602001916104ae565b820191906000526020600020905b81548152906001019060200180831161049157829003601f168201915b50505091835250506001820154602082015260028201546001600160a01b031660408201526003820154606082015260049091015460809091015283836104f481611123565b94508151811061050657610506611284565b6020026020010181905250808061051c90611123565b915050610404565b505090565b606060056000838152602001908152602001600020805480602002602001604051908101604052809291908181526020016000905b828210156105b3576000848152602090819020604080516060810182526003860290920180548352600180820154848601526002909101546001600160a01b031691830191909152908352909201910161055e565b505050509050919050565b6040805180820182528281526001602080830191909152336000908152600690915291909120815181906105f290826111c4565b50602091909101516001909101805460ff191691151591909117905550565b6060600060015b600054811161066457600081815260046020526040902060020154336001600160a01b0390911603610652578161064e81611123565b9250505b8061065c81611123565b915050610618565b508067ffffffffffffffff81111561067e5761067e610dd6565b6040519080825280602002602001820160405280156106b757816020015b6106a4610d9e565b81526020019060019003908161069c5790505b509150600060015b600054811161080257600081815260046020526040902060020154336001600160a01b03909116036107f05760008181526004602052604090819020815160a081019092528054829082906107139061113c565b80601f016020809104026020016040519081016040528092919081815260200182805461073f9061113c565b801561078c5780601f106107615761010080835404028352916020019161078c565b820191906000526020600020905b81548152906001019060200180831161076f57829003601f168201915b50505091835250506001820154602082015260028201546001600160a01b031660408201526003820154606082015260049091015460809091015284836107d281611123565b9450815181106107e4576107e4611284565b60200260200101819052505b806107fa81611123565b9150506106bf565b50505090565b604080518082019091526060815260006020820152336000908152600660205260409081902081518083019092528054829082906108459061113c565b80601f01602080910402602001604051908101604052809291908181526020018280546108719061113c565b80156108be5780601f10610893576101008083540402835291602001916108be565b820191906000526020600020905b8154815290600101906020018083116108a157829003601f168201915b50505091835250506001919091015460ff161515602090910152919050565b6000818152600460205260409020600201546001600160a01b03166109385760405162461bcd60e51b815260206004820152601160248201527010da185c9a5d1e48139bdd08119bdd5b99607a1b6044820152606401610299565b600034116109885760405162461bcd60e51b815260206004820152601760248201527f446f6e6174696f6e2063616e6e6f74206265207a65726f0000000000000000006044820152606401610299565b60008181526004602081905260409091206003810154910154106109ee5760405162461bcd60e51b815260206004820152601860248201527f43686172697479206275646765742066756c66696c6c656400000000000000006044820152606401610299565b600180549060006109fe83611123565b9190505550610a306040518060600160405280600081526020016000815260200160006001600160a01b031681525090565b6001805482523360408084019182523460208086018281526000888152600583528481208054808901825590825283822089516003909202019081559151968201969096559351600290940180546001600160a01b0319166001600160a01b0390951694909417909355858452600492839052908320909101805491929091610aba90849061129a565b9091555050600354600090606490610ad290346112b3565b610adc91906112ca565b90506000610aea82346112ec565b600085815260046020526040902060020154909150610b12906001600160a01b031682610d39565b600254610b28906001600160a01b031683610d39565b50505050565b6000838152600460205260409020600201546001600160a01b0316610b895760405162461bcd60e51b815260206004820152601160248201527010da185c9a5d1e48139bdd08119bdd5b99607a1b6044820152606401610299565b6000838152600460205260409020600201546001600160a01b03163314610be85760405162461bcd60e51b8152602060048201526013602482015272556e617574686f72697a656420456e7469747960681b6044820152606401610299565b60008111610c305760405162461bcd60e51b8152602060048201526015602482015274416d6f756e742063616e6e6f74206265207a65726f60581b6044820152606401610299565b600083815260046020526040902060038101829055610b2883826111c4565b610c57610d9e565b60008281526004602052604090819020815160a08101909252805482908290610c7f9061113c565b80601f0160208091040260200160405190810160405280929190818152602001828054610cab9061113c565b8015610cf85780601f10610ccd57610100808354040283529160200191610cf8565b820191906000526020600020905b815481529060010190602001808311610cdb57829003601f168201915b50505091835250506001820154602082015260028201546001600160a01b031660408201526003820154606082015260049091015460809091015292915050565b6000826001600160a01b03168260405160006040518083038185875af1925050503d8060008114610d86576040519150601f19603f3d011682016040523d82523d6000602084013e610d8b565b606091505b5050905080610d9957600080fd5b505050565b6040518060a00160405280606081526020016000815260200160006001600160a01b0316815260200160008152602001600081525090565b634e487b7160e01b600052604160045260246000fd5b600082601f830112610dfd57600080fd5b813567ffffffffffffffff80821115610e1857610e18610dd6565b604051601f8301601f19908116603f01168101908282118183101715610e4057610e40610dd6565b81604052838152866020858801011115610e5957600080fd5b836020870160208301376000602085830101528094505050505092915050565b60008060408385031215610e8c57600080fd5b823567ffffffffffffffff811115610ea357600080fd5b610eaf85828601610dec565b95602094909401359450505050565b600060208284031215610ed057600080fd5b5035919050565b6000815180845260005b81811015610efd57602081850181015186830182015201610ee1565b506000602082860101526020601f19601f83011685010191505092915050565b6000815160a08452610f3260a0850182610ed7565b602084810151908601526040808501516001600160a01b0316908601526060808501519086015260809384015193909401929092525090919050565b6000602080830181845280855180835260408601915060408160051b870101925083870160005b82811015610fc357603f19888603018452610fb1858351610f1d565b94509285019290850190600101610f95565b5092979650505050505050565b602080825282518282018190526000919060409081850190868401855b828110156110255781518051855286810151878601528501516001600160a01b03168585015260609093019290850190600101610fed565b5091979650505050505050565b60006020828403121561104457600080fd5b813567ffffffffffffffff81111561105b57600080fd5b61106784828501610dec565b949350505050565b60208152600082516040602084015261108b6060840182610ed7565b90506020840151151560408401528091505092915050565b6000806000606084860312156110b857600080fd5b83359250602084013567ffffffffffffffff8111156110d657600080fd5b6110e286828701610dec565b925050604084013590509250925092565b6020815260006111066020830184610f1d565b9392505050565b634e487b7160e01b600052601160045260246000fd5b6000600182016111355761113561110d565b5060010190565b600181811c9082168061115057607f821691505b60208210810361117057634e487b7160e01b600052602260045260246000fd5b50919050565b601f821115610d9957600081815260208120601f850160051c8101602086101561119d5750805b601f850160051c820191505b818110156111bc578281556001016111a9565b505050505050565b815167ffffffffffffffff8111156111de576111de610dd6565b6111f2816111ec845461113c565b84611176565b602080601f831160018114611227576000841561120f5750858301515b600019600386901b1c1916600185901b1785556111bc565b600085815260208120601f198616915b8281101561125657888601518255948401946001909101908401611237565b50858210156112745787850151600019600388901b60f8161c191681555b5050505050600190811b01905550565b634e487b7160e01b600052603260045260246000fd5b808201808211156112ad576112ad61110d565b92915050565b80820281158282048414176112ad576112ad61110d565b6000826112e757634e487b7160e01b600052601260045260246000fd5b500490565b818103818111156112ad576112ad61110d56fea2646970667358221220df5aa6c66086e59584da18b0e742f47e26c481509a0491ea6c3f5e213190aa7964736f6c63430008110033",
  "linkReferences": {},
  "deployedLinkReferences": {}
}